:020000040800F2
:10000000C06200205D020008ED3E0008372D0008A8
:10001000A33A0008010A0008554C0008000000003F
:100020000000000000000000000000009D0100082A
:10003000D50C000800000000F9010008C9430008C1
:1000400077020008770200087702000877020008AC
:10005000770200087702000877020008770200089C
:10006000770200087702000877020008770200088C
:10007000770200087702000877020008770200087C
:10008000770200087702000877020008890A000852
:10009000650A0008710A00087D0A0008F50C0008CE
:1000A000770200087702000877020008770200084C
:1000B00089440008770200087702000877020008E8
:1000C000770200087702000877020008770200082C
:1000D00077020008A14B0008C14B00087702000816
:1000E000D70C0008770200087702000877020008A2
:1000F00077020008770200087702000877020008FC
:1001000077020008770200087702000877020008EB
:10011000F14800087702000877020008770200081B
:1001200077020008770200087702000877020008CB
:10013000770200087702000877020008B90A000871
:10014000950A0008A10A0008AD0A00087702000815
:10015000770200087702000877020008770200089B
:10016000770200087702000877020008770200088B
:1001700077020008770200087702000800000000FC
:100180007702000877020008DFF80CD000F09AFB35
:100190000048004705660008C06200202C4B196823
:1001A0000868B0E8F04F80F30988BFF36F8F4FF015
:1001B000000080F3118870470000000008480068C4
:1001C000006880F308884FF0000080F3148862B65E
:1001D00061B6BFF34F8FBFF36F8F00DF00BF00BF6B
:1001E00008ED00E0DFF80C00016841F470010160E7
:1001F000704700BF88ED00E0EFF30980BFF36F8F19
:10020000134B1A681EF0100F08BF20ED108A20E96A
:10021000F04F106009B44FF0500080F31188BFF325
:100220004F8FBFF36F8F08F0B5F84FF0000080F3E9
:10023000118809BC19680868B0E8F04F1EF0100F6B
:1002400008BFB0EC108A80F30988BFF36F8F704746
:1002500028020020EFF30580704700000648804721
:1002600006480047FEE7FEE7FEE7FEE7FEE7FEE79B
:10027000FEE7FEE7FEE7FEE7794400088901000893
:100280002DE9F05F0546002092469B4688460646CB
:10029000814640241BE0284641464746224600F05E
:1002A0000AFA53465A46C01A914110D311461846CD
:1002B000224600F0F1F92D1A67EB01084F4622465D
:1002C0000120002100F0E8F917EB00094E41201E43
:1002D000A4F10104DFDC484631462A464346BDE826
:1002E000F09F40EA01039B0703D009E008C9121FF1
:1002F00008C0042AFAD203E011F8013B00F8013BE0
:10030000521EF9D27047D2B201E000F8012B491E0B
:10031000FBD270470022F6E710B513460A460446A2
:100320001946FFF7F0FF204610BD2DE9FE4F80462D
:1003300081EA0300C00F0C46009021F0004123F039
:100340000045B8EB0200A94105D24046214690463F
:100350001C460B46024623F00040104347D0270DB1
:10036000C7F30A00C3F30A510290401A01904028D3
:100370006BDAC3F3130040F4801B0098924620B15F
:100380000023D2EB030A63EB0B0B01985946C0F133
:100390004002504600F080F906460D465046594648
:1003A000019A00F098F910EB08006141002487EAF7
:1003B000115284EAE7731A4340D0009A62B3019A5B
:1003C000012A4FEA075215DC001B61EB02014FF0D6
:1003D000004202EA0752CDE90042001C41F58011BB
:1003E00032462B4600F0CFF903B0BDE8F08F40460F
:1003F0002146F9E7001B61EB0201001C41F5801367
:1004000000185B412018A2F5001747EB030140EAF2
:10041000D570B6196D4111E06D084FEA360645EA10
:10042000C0754FEA0752001B61EB0201001C41F549
:10043000801149084FEA30000019514132462B46DD
:1004400003B0BDE8F04F00F08FB9009801224000E2
:100450000023D0EB020263EBE073009821464FEAE1
:10046000E074B8EB000061EB0401E9E783F00043BE
:100470005BE781F0004158E72DE9FE4F81EA030474
:1004800004F0004421F0004100944FF0000B23F0F1
:10049000004350EA01045ED052EA03045BD0C3F388
:1004A0000A54C1F30A552C44A4F2F3340194A0FB7E
:1004B0000254C1F3130141F48011C3F3130343F455
:1004C000801301FB024400FB034E840A970A44EAAE
:1004D000815447EA8357A4FB076802958D0A05FB00
:1004E00007854FEA932C04FB0C542705029D4FEA25
:1004F000065847EA1637B5EB08056EEB070C870E72
:10050000920E47EA811742EA8312A7FB0201B6EB7B
:100510000B0164EB00042B0D43EA0C335E1844EB33
:100520001C50DA465146E7FB0201C5F313044FEABB
:100530000B3343EA14534FEA0432019C43EA0603A7
:10054000A4F10C040294009CCDE900B400F01BF966
:1005500003B0BDE8F08F00200146F9E72DE9F04D2A
:1005600081EA030404F0004B21F0004514464FF0EB
:10057000000A23F0004150EA050220D054EA0102AB
:100580001DD0C5F30A570246C5F31303C1F3130088
:10059000C1F30A5640F4801543F48013A7EB060814
:1005A000101BD64608F2FD3873EB050002D308F1A4
:1005B000010801E092185B41B8F1000F03DA002056
:1005C0000146BDE8F08D00204FF4801106468446B8
:1005D0000EE0171B73EB050705D3121B63EB050336
:1005E00006434CEA010C49084FEA300092185B417F
:1005F00050EA0107EDD152EA030012D082EA04006A
:1006000083EA0501084305D0101BAB4106D2012245
:10061000002306E000224FF0004302E06FF00102E9
:1006200053101AEB06004CEB085110EB0A0041EB9B
:100630000B01BDE8F04D00F097B800F0004230F03B
:1006400000400AD0C10D01F56071C0F3160042EA06
:100650000151C2084007114370470020014670470E
:1006600001F0004330B421F0004150EA010206D00D
:100670000A0DA2F56072C1F31301002A02DC30BC3E
:1006800000207047440F44EAC104C100E01830BCA8
:1006900000EBC25000F031B8202A04DB203A00FA07
:1006A00002F1002070479140C2F1200320FA03F3C9
:1006B000194390407047202A04DB203A21FA02F0C7
:1006C0000021704721FA02F3D040C2F1200291408C
:1006D000084319467047202A06DBCB17203A41FA17
:1006E00002F043EAE07306E041FA02F3D040C2F1BF
:1006F000200291400843194670470029A8BF70475F
:10070000401C490008BF20F00100704710B4B0FA47
:1007100080FC00FA0CF050EA010404BF10BC7047E2
:1007200049B1CCF1200421FA04F411FA0CF118BFFC
:10073000012121430843A3EB0C01CB1D4FEA0061CB
:100740004FEA102042BF002010BC704700EBC3509E
:1007500010440029A4BF10BC7047401C490008BFCA
:1007600020F0010010BC704710B5141E73F1000496
:1007700008DA401C41F1000192185B411A4301D193
:1007800020F0010010BD2DE9F04D92469B4611B1BD
:10079000B1FA81F202E0B0FA80F220329046FFF71F
:1007A0007BFF04460F4640EA0A0041EA0B0153462C
:1007B0005A46084313D0114653EA010019D0C8F134
:1007C00040025046FFF777FF05460E465046594611
:1007D0004246FFF761FF084305D0012004E02046B0
:1007E0003946BDE8F08D0020054346EAE0762C430B
:1007F00037430A986305E40AA0EB08000022FD0ACB
:1008000044EA47540A3002D500200146E9E70105D1
:1008100010196941DDE9084500196941BDE8F04D4D
:10082000A2E72DE9F04D00231A461B1A8A4103DB8B
:1008300000200146BDE8F08DC1F30A52C1F3130157
:1008400041F480154FF0000BD10702D100186D4123
:10085000521E0027044640F2FF11384601EB620A9F
:100860003E468046024600204FF48011FFF723FFEA
:10087000C2197141BB1846EB0100B4EB030C75EBD8
:10088000000C04D3E41A65EB000517460E46241944
:1008900008F101006D4180463428E3DDF91946EB8B
:1008A0000600091BA84103D24FF0FF32134601E0B6
:1008B000002213461BEB070046EB0A51BDE8F04D42
:1008C000FFF752BF064C074D06E0E06840F0010319
:1008D00094E8070098471034AC42F6D3FFF758FC71
:1008E0008C900008AC9000080EB5C10F80EAE07053
:1008F0000844CA07002140F233438DE80E000A463F
:100900000B46FFF740FF03B000BD0EB540F2334188
:1009100002910021CDE900110A460B46FFF733FF93
:1009200003B000BD70B5C1F30A5201F000450024C8
:10093000C1F3130140F2FF3341F480119A4201DA0E
:10094000002070BD40F233439A42A2F2334203DCEE
:100950005242FFF7B0FE00E090402C43F1D04042FD
:1009600070BD30B58C1810F8012B12F00F0301D1B7
:1009700010F8013B120906D110F8012B03E010F822
:10098000015B01F8015B5B1EF9D101E001F8013B5D
:10099000521EFBD1A142E6D3002030BD10B5114C50
:1009A0002178491CC9B22170642916D290ED000A41
:1009B0000D4A10EE101ADFED0D0A914202DD30EE05
:1009C000600A06E010EE101A094A914205D930EE8D
:1009D000200A80ED000AFFF7E1FF2078401E20701A
:1009E00010BD000070000020000034430000B4433C
:1009F000000034C305F0D6F8012006F08FFAF9E7BD
:100A0000FEE7000030B58BB000240120CDE90640A0
:100A10000394089004940E20059404250990CDE9D0
:100A20000045029469460E4800F000FA08B100F053
:100A300064F90B4800F07CFD08B100F05EF902217A
:100A4000074800F07DF908B100F057F9044818385C
:100A50000821C0E90145C0E9034104750BB030BD70
:100A600034030020014800F0DCBA00003403002009
:100A7000014800F0D6BA000034030020014800F01D
:100A8000D0BA000034030020014800F0CABA0000C8
:100A900034030020014800F0C4BA00005C030020C9
:100AA000014800F0BEBA00005C030020014800F0DD
:100AB000B8BA00005C030020014800F0B2BA0000A0
:100AC0005C030020BDEEC00A0421016010EE101A84
:100AD0009FED010A818170470000000010B50121DF
:100AE000084600F00DF8052000F0B0FD01210220BD
:100AF00000F006F8BDE81040052000F0A7BD00009A
:100B000000B589B0002208230492CDE9052300F541
:100B100080700092CDE90120FF208DF800008DF853
:100B200001008DF804008DF802008DF805008DF8A5
:100B300003008DF80600012905D0022905D00329FC
:100B40000CD1FE2002E0FC2000E0FD208DF8070023
:100B500008AB6A4602A9024800F004F909B000BDDA
:100B60005C03002010B50878574A012834D09FED67
:100B7000572ADFED572A02284ED0032878D00428C0
:100B800029D1CB78B1F801000C791B0143EA141389
:100B9000497904F00F0441EA042440BA1021F2EE2E
:100BA000090ABAEE090A07F0B3F982ED150A0C2119
:100BB000F0EE420AB0EE620A184607F0A9F982ED9B
:100BC000160A0C21F3EE020ABBEE020A204607F0D9
:100BD0009FF982ED170A10BDB1F8010040BA00EE8E
:100BE000100AB8EE400A82ED000AC8780B790001BD
:100BF00040EA131000EE100AB8EE400A82ED010A36
:100C0000087900B101204979084300EE100AB8EED6
:100C1000400A82ED020A10BDCB78B1F801000C79D0
:100C20001B0143EA1413497904F00F0441EA042438
:100C300040BA1021F2EE090ABAEE090A07F068F983
:100C400082ED070A0C21F0EE420AB0EE620A184665
:100C500007F05EF982ED080A0C21F3EE020ABBEE02
:100C6000020A204607F054F982ED090A10BDFFE799
:100C7000CB78B1F801000C791B0143EA14134979D0
:100C800004F00F0441EA042440BA1021F2EE090AEC
:100C9000BAEE090A07F03CF982ED0E0A0C21F0EEDB
:100CA000420AB0EE620A184607F032F982ED0F0AE6
:100CB0000C21F3EE020ABBEE020A204607F028F9E7
:100CC00082ED100AD2E70000AC0200200000FA43D7
:100CD0000000FAC3704710B54FF4006000F02CFD1F
:100CE0004FF4805000F028FDBDE810404FF4005054
:100CF00000F022BD802000F01FBD72B6FEE70000AC
:100D000070B50C4802210C4D0170002141704FF468
:100D10000061284600F014FE084CA9142060284603
:100D200000F00EFE60604FF40051284600F008FE0F
:100D3000A06070BD9C010020001402401C06002031
:100D400090F82020012A07D0022A05D0416A41F4F8
:100D50008021416201207047006842690A43426174
:100D600000207047F0B590F820500468A468012D69
:100D700005D0022D03D0416A41F4802153E014F0E4
:100D8000406F01D1E5004BD5C4F30164022C03D9B7
:100D9000416A41F4000146E00125A5401D608D68CF
:100DA0004FF4C0739DB1CE6835434E6845EAC60521
:100DB000066803EB0417F5514FF4C275076805EB9D
:100DC00004150E697E51097D012905D009E00E88C0
:100DD000CD6845EA4655EBE701684E5946F4807602
:100DE0004E511179D2F805504FF4C67641EA0525E7
:100DF000016806EB04168D511178D2F801204FF4EA
:100E0000C47541EA0221026805EB041551510068DE
:100E100003EB0411425842F0010242500020F0BDA1
:100E2000416A41F4001141620120F0BD10B590F813
:100E30002020012A07D0022A05D0416A41F48021EE
:100E40004162012010BD3B48D0F8002242F001026F
:100E5000C0F80022D0F8002222F47C52C0F8002210
:100E6000D0F800224B6A42EA0322C0F800220A7D31
:100E700002F01F0301229A40D0F81C329343C0F8BD
:100E80001C32CB69B3B9D0F80C329343C0F80C32A2
:100E90008C894B6864F31F434C6900EBC404C4F8AD
:100EA00040320C890B6864F31F434C6900EBC404A7
:100EB000C4F84432CB69012B16D1D0F80C3213435D
:100EC000C0F80C320C884B6864F31F434C6900EB8C
:100ED000C404C4F840320C89CB6864F31F434C69E6
:100EE00000EBC404C4F844328B69002BD0F8043200
:100EF0000ED01343C0F804320B69002BD0F8143223
:100F000008D01343C0F81432096A012904D008E05C
:100F10009343EFE79343F5E7D0F81C121143C0F871
:100F20001C12D0F8001221F00101C0F800120020BC
:100F300010BD000000640040704730B590F82040BC
:100F4000012C05D0022C03D0416A41F480215DE0E0
:100F50000468002955D02469A40754D04FF4D874EC
:100F6000056804EB01142D5915F00405956005681A
:100F70002D594ED0ED08556005682C5904F0020437
:100F8000D4604FF4DA74056804EB01142D5905F0B0
:100F90000F05156105682D59C5F30725956105688D
:100FA0002C59240C54614FF4DC72046802EB0112DA
:100FB000A4581C700468A458240A5C700468A458DF
:100FC000240C9C700468A258120EDA704FF4DE7282
:100FD000046802EB0112A4581C710468A458240A86
:100FE0005C710468A458240C9C710468A258120E09
:100FF000DA71006881B1016941F0200101610020CE
:1010000030BDE468A8E7416A41F400114162012063
:1010100030BD6D0D1560AFE7C16841F02001C160C2
:10102000EDE72DE9F05F0546006800244669D0F839
:1010300004908768D0F80CB0D0F810A0D0F81880D1
:10104000F10748D0F90714D001218160B80703D512
:10105000284600F09AFA0CE0780702D54FF40064B5
:1010600007E0380702D54FF4805402E0284600F02C
:101070008BFAF80516D529684FF480708860B8059A
:1010800003D5284600F083FA0CE0780502D544F435
:10109000005407E0380502D544F4804402E02846B5
:1010A00000F074FAF80316D529684FF48030886090
:1010B000B80303D5284600F06CFA0CE0780302D59B
:1010C00044F4004407E0380302D544F4803402E0DD
:1010D000284600F05DFA300707D55FEACB6004D5FB
:1010E0002968102044F40074C86070074FF00807A6
:1010F00007D55FEA0B7004D52868C760284600F062
:10110000CBF9B00706D52868C068800702D028460A
:1011100000F0C4F9700607D55FEACA6004D52968F3
:10112000102044F480640861B00607D55FEA0A70B5
:1011300004D528680761284600F0F6F9F00606D5C0
:1011400028680069800702D0284600F0EEF9B00355
:1011500008D55FEAC96005D529681020486028468F
:1011600000F0E4F9F00307D55FEA097004D52868B8
:101170004760284600F00EFA300446D55FEA497011
:1011800040D5F00504D55FEAC87001D044F00104F1
:10119000B00504D55FEA887001D544F002047005FB
:1011A00004D55FEA487001D544F00404300529D520
:1011B00018F0700F26D008F07000402815D006DC1B
:1011C000102809D020280AD0302816D10AE050284B
:1011D0000ED0602811D10EE044F008040DE044F078
:1011E00010040AE044F0200407E044F0400404E066
:1011F00044F0800401E044F480742868816921F09F
:1012000070018161296804204860002C05D0686A5B
:10121000204368622846FFF78FFEBDE8F09F70B557
:10122000040003D094F8200010B104E0012070BD48
:10123000204600F081F82068016841F0010101605A
:1012400000F088FB0546052604E000F083FB401B08
:101250000A2811D820684068C007F6D020680168C5
:1012600021F00201016000F075FB05460BE000F083
:1012700071FB401B0A2806D9606A40F400306062A6
:1012800084F82060D2E7206840688007EFD4207E91
:101290000128206801683DD021F080010160607E56
:1012A00001282068016838D021F040010160A07E4B
:1012B00001282068016833D021F020010160E07E20
:1012C0000128206801682ED041F010010160207FC4
:1012D00001282068016829D021F008010160607FA1
:1012E00001282068016824D021F004010160D4E9BC
:1012F00002010843D4E90412114308436168491EFE
:1013000008432168C86100206062012084F8200041
:10131000002070BD41F08001C0E741F04001C5E709
:1013200041F02001CAE721F01001CFE741F00801A8
:10133000D4E741F00401D9E7F0B587B004461421A1
:101340006846FEF7E7FF4F4B4F48DFF834E1596836
:10135000D4F800C04C4A0225032609271030002487
:10136000491CF4453CD15960012907D1016841F07D
:1013700000710160006800F000700590106840F096
:1013800001001060106802AB00F0010005904FF4FE
:10139000C050CDE9000583E8D00069463B4800F025
:1013A000D7F900220221132000F07CFB132000F06B
:1013B0006BFB00220221142000F074FB142000F0CB
:1013C00063FB00220221152000F06CFB152000F0C9
:1013D0005BFB00220221162000F064FB16204BE08C
:1013E000DFF8ACE0F44549D1D0F800C04CF0806C97
:1013F000C0F800C0D0F800C001290CF0806CCDF816
:1014000014C0596007D1016841F0007101600068A3
:1014100000F000700590106840F002001060106845
:1014200002AB00F0020005904FF44050CDE90005FA
:1014300083E8D0006946174800F08AF900220521A8
:101440003F2000F02FFB3F2000F01EFB0022052173
:10145000402000F027FB402000F016FB0022052171
:10146000412000F01FFB412000F00EFB002205216F
:10147000422000F017FB422000F006FB07B0F0BD51
:10148000006400402000002030380240000002408C
:101490000068004000040240704700002DE9F04160
:1014A00006461E4801271E4D88B086421DD105F113
:1014B0000C036A4600212F60FFF73FFD05F10C0188
:1014C000684605F02DF8DFF85C800024C4EBC4000A
:1014D00000EB800108EB810001F06EFE641CA4B2F9
:1014E000082CF3D3A868401CA8600C48283086421A
:1014F00010D10B4B6A46143300212F60FFF71DFDFE
:1015000007496846143103F02FF90549684614313C
:10151000FFF728FB08B0BDE8F0810000340300208D
:1015200020000020640800207047704770470000CA
:1015300070B5044690F82000012804D0606A40F499
:101540000020606218E0022084F820002068016812
:1015500021F00101016000F0FDF905460EE000BF39
:1015600000F0F8F9401B0A2808D9606A40F40030FE
:101570006062052084F82000012070BD206840686A
:10158000C007EDD1606270BD70477047704770470B
:101590007047704770472DE9F0410446876D00F0B1
:1015A000D9F9064694F835000025022806D0802097
:1015B000606584F834500120BDE8F081206801683E
:1015C00021F0160101602068416921F0800141612C
:1015D000206C08B9A06C20B12068016821F00801D6
:1015E00001602068016821F0010101600CE000F059
:1015F000B1F9801B052807D920206065032084F8F5
:10160000350084F83450D7E720680068C007EED171
:1016100094F85C103F208840B860012084F83500C1
:1016200084F834500020C7E790F83510022903D021
:101630008021416501207047052180F83510006840
:10164000016821F0010101600020704770B5044677
:1016500000F080F90546601C02D00448007804447C
:1016600000F078F9401BA042FAD370BD18020020A8
:1016700070B580280AD04FF400612C4A2C4C884267
:1016800042D1104600F05CF9206070BD294C4FF04B
:101690008041A06960614A6AE16840F27123594360
:1016A00002EB0111A161081A80B2A160E0806378A9
:1016B0000025012140F69802012B05D09042E4D389
:1016C0006170A570257070BD904202D3A570217025
:1016D00070BDA0F2B63140F24C42914212D8144A89
:1016E000A178283A22F81100491CC8B2A070082835
:1016F000EED30F494200283901F11400FEF7F1FD45
:10170000A57070BD657070BD4FF48051884204D1E2
:10171000104600F015F9606070BD4FF4005188422A
:10172000FAD1104600F00CF9A06070BD0014024020
:101730001C0600204C000020044910B50A68024233
:1017400002D00860FFF794FF10BD0000143C014078
:101750002DE9F84FDFF8BCA1002201250AF1040BA6
:1017600003264FF00F090BF1040E00BF0B6805FABA
:1017700002F42340A34270D10F7907F00307012F31
:1017800001D0022F16D187684FEA420806FA08FCFA
:1017900027EA0C07D1F80CC00CFA08FC4CEA070C3D
:1017A000C0F808C04768A7430C79C4F300149440FC
:1017B0003C4344600C79E443A4070AD0C4684FEA70
:1017C000420C06FA0CF7BC438F6807FA0CF7274364
:1017D000C7600C7904F00304022C12D1D40800EB8A
:1017E000840CDCF820405707FF0E09FA07F824EABA
:1017F0000804D1F8108008FA07F848EA0408CCF881
:10180000208004684FEA420C06FA0CF7BC430F79BB
:1018100007F0030707FA0CF7274307604C6814F436
:10182000403F70D03C4C276847F4804727602468CD
:1018300022F0030704F480440094384C07EB040CB6
:10184000DCF8084897074FEA177809FA08F7BC430D
:10185000334FB84202D1002724E054E0314FB84260
:1018600001D101271EE0304FB84201D1022719E013
:101870002E4FB84201D1032714E02D4FB84201D1B9
:1018800004270FE02B4FB84201D105270AE02A4F69
:10189000B84201D1062705E0284FB84201D10727F9
:1018A00000E0082707FA08F72743CCF80878DAF8A9
:1018B00000405746D1F804C09C435FEACC3C00D5B9
:1018C0001C433C60DBF800405F46D1F804C09C43F9
:1018D0005FEA8C3C00D51C433C60DEF80040774654
:1018E000D1F804C09C435FEACC2C00D51C433C607B
:1018F000084F0C373C68D1F804C09C435FEA8C2C3D
:1019000000D51C433C60521C102AFFF42FAFBDE8E9
:10191000F88F0000003C0140443802400030014094
:10192000000002400004024000080240000C024097
:10193000001002400014024000180240001C024047
:101940000069084000D0012070470AB181617047EA
:101950000904FBE701488068704700001802002076
:1019600070B5040004D094F83D00002510B106E0E5
:10197000012070BD84F83C50204601F04FF824202F
:1019800084F83D002068C16821F40051C160204600
:1019900003F064F82068016921F490410161206836
:1019A000416921F0220141612068416941F008014B
:1019B00041612068C16841F40051C1602564202064
:1019C00084F83D0084F83E00002070BD0248816824
:1019D0000278114481607047180200200B4810B54E
:1019E000016841F400710160016841F480610160A7
:1019F000016841F480710160032000F073F80F204A
:101A000000F006F800F024F8002010BD003C024071
:101A100070B50D4D04464FF47A712878B1FBF0F0A3
:101A20000A490968B1FBF0F000F00EFB48B9102C30
:101A300007D200222146501E00F034F800206C60CE
:101A400070BD012070BD000018020020240200209B
:101A50000C4882B0016841F480410160006800F4E4
:101A6000804000900748001F016841F080510160EC
:101A70000068002200F0805000900F21901E02B0FC
:101A800000F010B844380240002809DB00F01F02C3
:101A9000012191404009800000F1E020C0F80011D0
:101AA00070470000F0B40E4B1B680C46C3F30223D2
:101AB000C3F10705042D00D90425191D072901D2FA
:101AC000002300E0DB1E012606FA05F1491E214035
:101AD00099409E40761E16403143F0BC03F020BB77
:101AE0000CED00E0064900F0070208684FF6FF031E
:101AF000184040EA0220034A104308607047000083
:101B00000CED00E00000FA052DE9F0470E46050057
:101B100065D0DFF81481D8F80000F7B200F00700B4
:101B2000B04207D288F80070D8F8000000F0070033
:101B3000B04254D128683D4C810712D5400703D5E7
:101B4000206840F4E05020602878000703D5206822
:101B500040F4604020602068A96820F0F00008434D
:101B600020602878C0072DD03049686808390128DE
:101B700012D0022813D0032811D009688907002940
:101B80002DDA216821F0030101432160FFF7E2FE15
:101B9000814641F2883A0EE009688903EFE7096857
:101BA0008901ECE7FFF7D6FEA0EB0901514502D908
:101BB0000320BDE8F0872068696800F00C00B0EBF6
:101BC000810FEFD1D8F80010404601F00701B14273
:101BD00007D90770006800F00700B04201D001206B
:101BE000E7E72878400705D52068E96820F4E05049
:101BF000084320602878000706D52068296920F46A
:101C0000604040EAC100206000F038F82168084ACE
:101C1000C1F30311515CC8400649086006480068DA
:101C2000FFF7F6FE0020C4E7003C024008380240FF
:101C3000F08E0008240200201C0200200448054900
:101C400000680968044AC1F38221515CC8407047AA
:101C50002402002008380240008F0008044805498B
:101C600000680968044AC1F34231515CC8407047BA
:101C70002402002008380240008F0008154810B5E3
:101C8000006810F00C02144813D04110042A0FD041
:101C9000082A0ED10F4C241F2268236802F03F024D
:101CA0005B0207D52068C0F38810A0FB010106E0A5
:101CB000084610BD2168C1F38811A1FB0001002373
:101CC000FEF7DEFA2168C1F30141491C4900B0FB6F
:101CD000F1F010BD083802400024F4002DE9F84F5F
:101CE00004006ED02078DFF84C93C007A9F10405FA
:101CF0004AD009F104000168C1F38101012908D02B
:101D00000068C0F3810002280AD1D9F8000040021F
:101D100006D52868800337D560680028E1D033E015
:101D20006068B0F5803F10D0B0F5A02F286810D0C3
:101D300020F480302860286820F4802028606068C3
:101D4000A8B1FFF707FE06460DE0286840F4803092
:101D5000F4E740F480202860F7E700BFFFF7FAFDC2
:101D6000801B642873D828688003F7D50CE0FFF740
:101D7000F1FD064605E000BFFFF7ECFD801B64287F
:101D8000F0D828688003F7D42078DFF8AC82800789
:101D90004FF0000A3ED5A748001D016811F00C0F56
:101DA00008D00068C0F3810002280BD1D9F80000E8
:101DB000400207D42868800716D5E068012800D1C2
:101DC00012E033E1E068B8B10120C8F80000FFF785
:101DD000C1FD064605E000BFFFF7BCFD801B0228E1
:101DE000C0D828688007F7D52868216920F0F80056
:101DF00040EAC10028600DE0C8F800A0FFF7AAFD86
:101E0000064604E0FFF7A6FD801B02281FD82868BD
:101E10008007F7D42078000722D5864F874861696C
:101E2000703771B101210160FFF794FD064604E0AF
:101E3000FFF790FD801B022809D838688007F7D586
:101E40000EE0C0F800A0FFF785FD064605E082E041
:101E5000FFF780FD801B02287DD838688007F7D403
:101E60002078400768D5DFF8CCB100270BF13C0B98
:101E7000DBF80000C0000BD4DBF8001041F080510B
:101E8000CBF80010DBF80000012700F08050009034
:101E90006B4E3068C00510D4306840F480703060FC
:101EA000FFF758FD009005E0FFF754FD0099401A38
:101EB000022850D83068C005F6D55E4EA0686C3652
:101EC00001280FD00528306810D020F001003060C4
:101ED000306820F004003060A068B8B1FFF73AFD28
:101EE00000900FE0306840F00100F4E740F004009B
:101EF0003060F7E7FFF72EFD0099411A41F2883074
:101F0000814266D830688007F4D50EE0FFF722FDE5
:101F1000009007E0FFF71EFD0099411A41F288305A
:101F2000814256D830688007F4D42FB1DBF8001016
:101F300021F08051CBF80010A069C8B33D49091DBC
:101F40000968C1F3810102294AD00228504607D00E
:101F5000C8F8600000E03CE0FFF7FCFC04463BE012
:101F60004746C8F86000FFF7F5FC064605E000BFED
:101F7000FFF7F0FC801B02282BD828688001F7D4DB
:101F8000D4E907010843A16A2E4A490802EB01413E
:101F9000626A41EA8211084394F82C1040EA016118
:101FA000C9F8001001203866FFF7D4FC044606E0AB
:101FB0003EE000BFFFF7CEFC001B022809D82868CE
:101FC0008001F7D534E000BFFFF7C4FC001B0228F6
:101FD00002D90320BDE8F88F28688001F4D427E0F7
:101FE0000128F7D0D9F80000E26900F4800191429D
:101FF0001CD1226A00F03F01914217D147F6C0710F
:10200000626A0140B1EB821F10D1A26A4FF0FF3328
:1020100000F4403103EB5202B1EB024F06D194F8C9
:102020002C1000F07060B0EB016F01D00120D1E7FF
:102030000020CFE70438024000004742800E4742AC
:10204000007000400000FFFF10B5401EB0F1807F1F
:1020500001D3012010BD4FF0E02460610F21601713
:1020600003F05EF80020A06107202061002010BD71
:102070007047704770B590F83C20012A32D0012497
:1020800080F83C40022280F83D2003685A689D6831
:1020900022F070060A6832435A60134B02689A4273
:1020A00014D0B2F1804F11D0104B9A420ED0104B89
:1020B0009A420BD00F4B9A4208D00F4B9A4205D050
:1020C0000E4B9A4202D00E4B9A4204D1496825F039
:1020D00080031943916080F83D40002180F83C1056
:1020E000084670BD022070BD0000014000040040A1
:1020F00000080040000C0040000401400040014086
:102100000018004010B5040003D094F83D0010B151
:1021100007E0012010BD002084F83C00204600F0BC
:102120001FF8022084F83D00211D206802F0B2F95A
:10213000012084F8460084F83E0084F83F0084F8CB
:10214000400084F8410084F8420084F8430084F899
:10215000440084F8450084F83D00002010BD0000D4
:1021600008B501681648B1F1804F0AD0154A91426E
:1021700019D1016841F080010160006800F0800021
:102180001BE0016841F0010101600068002200F0DD
:102190000100009005211C20FFF784FCBDE80840E9
:1021A0001C20FFF771BC084A914207D1016841F435
:1021B00080710160006800F48070009008BD00002C
:1021C00040380240001C00400020004090F83D10C4
:1021D000012901D001207047022180F83D100168DB
:1021E000CA6842F00102CA6000681149884214D0EE
:1021F000B0F1804F11D00F4988420ED00E4988426D
:102200000BD00E49884208D00D49884205D00D49AF
:10221000884202D00C49884204D1816801F007014C
:10222000062903D0016841F00101016000207047D8
:10223000000001400004004000080040000C004085
:1022400000040140004001400018004070B5044601
:1022500090F83C000025012817D0012684F83C6046
:10226000022084F83D002068826822F0770222F480
:102270007F4282600868502838D00DDC20284FD07B
:1022800005DC90B3102811D14AE0022070BD30283F
:1022900046D040280AD13BE060282FD070280DD0CE
:1022A000B0F5805F03D0B0F5005F12D0012584F84F
:1022B0003D60002084F83C00284670BDCB68D1E921
:1022C0000121206802F057F92068816841F0770108
:1022D00009E0CB68D1E90121206802F04CF92068BF
:1022E000816841F480418160E1E719E0CA6849688A
:1022F000206802F015FA5021206806E0CA68496893
:10230000206802F01EFA6021206802F03EF9CEE754
:10231000CA684968206802F003FA40212068F4E79F
:10232000226801461046F0E7704770B50446006821
:1023300001694FF00005C943890715D4C168C94335
:10234000890711D4E91E0161012020772068806986
:102350008007204602D0FFF7E7FF04E000F0D0F846
:10236000204600F062F9257720680169C9434907D2
:1023700017D4C168C943490713D46FF00401016140
:10238000022020772068806910F4407F204602D028
:10239000FFF7CAFF04E000F0B3F8204600F045F96B
:1023A000257720680169C943090716D4C168C94364
:1023B000090712D46FF0080101610420207720681A
:1023C000C0698007204602D0FFF7AEFF04E000F0AE
:1023D00097F8204600F029F9257720680169C9435C
:1023E000C90617D4C168C943C90613D46FF01001D8
:1023F0000161082020772068C06910F4407F2046E2
:1024000002D0FFF791FF04E000F07AF8204600F0D8
:102410000CF9257720680169C943C90708D1C1684B
:10242000C943C90704D1891E0161204600F062F941
:1024300020680169C943090609D4C168C94309066E
:1024400005D46FF0800101612046FFF711FE20687E
:102450000169C943490609D4C168C943490605D47D
:102460006FF040010161204600F06EF920680169BB
:10247000C94389060BD4C168C943890607D46FF0E4
:10248000200101612046BDE87040FFF7F2BD70BD3C
:1024900070B586B0044614216846FDF73BFF144E24
:1024A000256800221349022309241348B54209D1A3
:1024B0000D6845F020050D60096801F020010591C7
:1024C00081150BE00D4EB54210D10D6845F0200589
:1024D0000D60096801F02001059171150091CDE9A9
:1024E0000132CDE903246946FFF732F906B070BD29
:1024F000001C004030380240001402400020004020
:10250000704770B5044690F83C0000260D4601283F
:102510000FD0012084F83C006AB1042A1DD0082A9B
:102520002FD00C2A3FD00126002084F83C003046F2
:1025300070BD022070BD206802F030F8206881690B
:1025400041F0080181612068816921F00401816105
:10255000206881692A69114311E0206802F04EF871
:102560002068816941F4006181612068816921F4FA
:1025700080618161206881692A6941EA0221816163
:10258000D2E7206802F070F82068C16941F00801C4
:10259000C1612068C16921F00401C1612068C1697D
:1025A0002A69114311E0206802F092F82068C1699D
:1025B00041F40061C1612068C16921F48061C16199
:1025C0002068C1692A6941EA0221C161ACE710B5FE
:1025D000040003D094F83D0010B107E0012010BDC5
:1025E000002084F83C00204600F01EF8022084F809
:1025F0003D00211D206801F04DFF012084F84600B8
:1026000084F83E0084F83F0084F8400084F84100DC
:1026100084F8420084F8430084F8440084F84500BC
:1026200084F83D00002010BD7047704710B5044687
:10263000022249B104290ED0082913D094F8410090
:10264000012816D0012010BD94F83E000128F9D1D0
:1026500084F83E200FE094F83F000128F2D184F87E
:102660003F2008E094F840000128EBD184F8402096
:1026700001E084F841200122206801F06FFF164933
:102680002068164A884201D0904203D1436C43F43B
:10269000004343642068884213D0B0F1804F10D0CB
:1026A0000F4988420DD00F4988420AD00E4988420E
:1026B00007D0904205D00D49884202D00C4988428B
:1026C00004D1816801F00701062903D0016841F0B7
:1026D00001010160002010BD000001400004014024
:1026E0000004004000080040000C00400040014091
:1026F000001800400068B0F1804F21D11149C8682E
:102700000861401CC8608888401C82B28A8001F140
:102710001C00642A12D300228A8043885B1C9BB26F
:1027200043803C2B0AD3428083885B1C9BB283800E
:102730003C2B03D38280C288521CC28089880180CE
:10274000704700004C000020704770477047000041
:10275000F8B5016804460868CA684B6910F00F0FA5
:102760004FF000055AD003F0010602F4907737438A
:1027700065D0C10705D0D10503D5216C41F0010119
:102780002164410705D5D90703D0216C41F002012E
:102790002164810705D5D90703D0216C41F00401DC
:1027A0002164010707D502F02001314303D0216CD9
:1027B00041F008012164216C00293BD0800604D53A
:1027C000900602D5204602F0E8F820684069216CA6
:1027D000C0F3801001F00801014320462BD002F025
:1027E000B5F820684069400621D52068143050E8CB
:1027F000001F21F0400140E80012002AF5D1A06B33
:10280000A8B16C490165A06BFEF70EFF002811D03E
:10281000A06B016D01B0BDE8F040084783060ED5FE
:1028200093060CD52046BDE8F84002F0B6B8204625
:10283000FFF78CFFF8BDFFF789FF2564F8BD266B15
:102840002023012E79D1C60677D5D60675D508681E
:10285000486800904869400640D5A16B0868406808
:102860000004000CEAD0A28D8242E7D9E085C86955
:10287000B0F5807F2DD020680C3050E8001F21F487
:10288000807140E80012002AF5D12068143050E829
:10289000001F21F0010140E80012002AF5D1206854
:1028A000143050E8001F21F0400140E80012002AD7
:1028B000F5D184F83E30256320680C3050E8001FC5
:1028C00021F0100140E80012002AF5D1A06BFEF7BC
:1028D00062FEA08DE18D401A81B229E0A08DE18DCC
:1028E000401A81B2E08D0028A8D00029A6D0206827
:1028F0000C3050E8002F22F4907240E80026002EA1
:10290000F5D12068143050E8002F22F0010240E891
:102910000026002EF5D184F83E30256320680C3067
:1029200050E8002F22F0100240E80023002BF5D1E0
:102930002046FFF70AFFF8BDFFE705062BD5150671
:1029400029D594F83D002128F5D1A068B0F5805F25
:1029500001D12069B0B1206A411C21622168007850
:102960004860E08C401E0004000CE084E3D1206845
:10297000C16821F08001C1602068C16841F0400158
:10298000C160D8E7206A0088C0F308004860206A68
:10299000801C2062E5E74006CDD55006CBD5CA683D
:1029A000204622F04002CA6084F83D3000F0C2F9AF
:1029B000C1E700003D49000870B5040004D094F858
:1029C0003D00002510B106E0012070BD84F83C50A8
:1029D000204600F023F8242084F83D002068C168D8
:1029E00021F40051C160204602F038F820680169E6
:1029F00021F4904101612068416921F02A0141617F
:102A00002068C16841F40051C1602564202084F829
:102A10003D0084F83E00002070BD00002DE9F04725
:102A200086B0044614216846FDF774FC7A49DFF845
:102A3000E481D4F800C00023774A10390225012729
:102A4000032408267548C4451ED1136843F40023A7
:102A50001360126802F4002205920A6842F0040230
:102A60000A60096801F004010591A1028DE8A20045
:102A7000CDE903466946FEF76BFE002205213420AE
:102A8000FFF710F834205BE0DFF89481DFF894A1C1
:102A9000C44528D1136843F480131360126802F40C
:102AA000801205920A6842F004020A600A6802F085
:102AB000040205920A6842F008020A60096801F0FF
:102AC000080105914FF480518DE8A200CDE903463D
:102AD0006946FEF73DFE04208DE8A100CDE90346DE
:102AE0006946504674E0DFF84081DFF82C910727F3
:102AF00009F10409C44528D1D9F8002042F0100298
:102B0000C9F80020D9F8000000F01000059008680E
:102B100040F001000860086802AA00F0010005907A
:102B20004FF4C060CDE9000582E8980069463F484F
:102B3000FEF70EFE002205212520FEF7B3FF25201B
:102B4000FEF7A2FF06B0BDE8F087DFF8E480C445D9
:102B500020D1106840F400301060106800F400309C
:102B60000590086840F008000860086802AE00F0B0
:102B7000080005906020CDE9000586E898006946C8
:102B80005046FEF7E5FD002205212620FEF78AFFCC
:102B90002620D5E7DFF89C801225C4451BD110689C
:102BA00040F480201060106800F4802005900868D0
:102BB00040F002000860086802AE00F002000590D4
:102BC0004FF48060CDE9000586E8980069461A4810
:102BD000FEF7BEFDB6E7194A9445B3D1D9F80070A7
:102BE00047F02007C9F80070D9F8002002F0200251
:102BF00005920A6842F004020A60096802AA01F01C
:102C0000040105914021CDE9001582E8580069468C
:102C1000DEE70000004C004040380240000802405F
:102C200000500040000C0240001001400000024033
:102C300000440040004800400004024000140140ED
:102C400090F83E30202B0ED159B152B190F83C3063
:102C5000012B08D0012380F83C300023036301F0EE
:102C600083BF0120704702207047000010B5044662
:102C70000068224986B088420AD1214B214A224964
:102C8000224802F047F9012221492248FFF7D8FFE4
:102C900021492068884207D101F0A2FF1C49012286
:102CA000491C1E48FFF7CCFF1D492068884205D10A
:102CB00017490122891C1B48FFF7C2FF1A492068E7
:102CC000884219D1124B02AC48331A1F111F081F3A
:102CD00084E80F00011F0838CDE90001031F183AEE
:102CE0001039103801F052FA06B00122BDE8104048
:102CF0000E490F48FFF7A4BF06B010BD00100140F9
:102D000048000020440000203C000020400000203B
:102D100004010020E4040020004C00405C0400207A
:102D200000500040A004002000440040BC010020EE
:102D3000280500207047FEE70021816290ED060A19
:102D4000104B80ED040AB0F9082000EE102AB8EE0E
:102D5000C00AB0EEC00A10EE102A9A4210DC426A95
:102D6000521C4262322A0ADB41629FED070A0121AE
:102D700080ED200A81620221016080ED040A704723
:102D8000416270470000F0410000000010B5174993
:102D9000174C00200867B4F9C61204F52F70B1F57E
:102DA000FA6F02DD134A52681AB141F65832914265
:102DB00009DD9FED110A01F09FFF9FED100A012030
:102DC00084EDCF0A10BD9FED0E3ADFED0E2A9FED88
:102DD0000E2ADFED0E1A9FED0E1ADFED0E0A9FEDA3
:102DE0000E0A02F091F8002010BD0000241100200E
:102DF000640800201C0600200000000000808443BE
:102E0000CDCCCC3E9A99993E0000FA430000FA449A
:102E10000000C84200007A430000704210B5164915
:102E2000164C00200867B4F9C6129FED150A04F588
:102E30002F70B1F5FA6F02DD124A52681AB141F6ED
:102E40005832914207DD01F057FF9FED0F0A012034
:102E500084EDCF0A10BD9FED0D3ADFED0D2A9FEDF9
:102E60000D2ADFED0D1A9FED0D1ADFED0D0A02F0B0
:102E70004BF8002010BD0000241100206408002041
:102E8000000000001C06002000808443CDCCCC3E16
:102E90009A99993E0000FA430000FA440000C842A3
:102EA00000007A4310B51A489FED133ADFED132A5C
:102EB000DFED141A9FED141ADFED140A04462DED10
:102EC000028B9FED0F8AB0EE480AB0EE402A02F066
:102ED0001BF81049D1F83813012903D00020BDECAC
:102EE000028B10BDB0EE480A204601F005FF0A49EA
:102EF00001200867F3E700009A99993ECDCCCC3EBB
:102F0000000000000000FA430000C84200007042C8
:102F1000200B002064080020241100200249012019
:102F200008670020704700002411002070B51F4C76
:102F3000204904F52F702DED028BB4F9C6229FEDC8
:102F40001C8A096812F5FA6F00DA49B141F2883338
:102F5000194DDA420EDA2B685B1C2B60322B09DD2F
:102F6000B0EE480A01F0C8FE84EDCF8A0120BDEC26
:102F7000028B70BD42F20F731A445B009A42F6D87E
:102F80000129F4D100219FED0F1A9FED0C3ADFEDDE
:102F90000C2AB0EE412ADFED0C1AF0EE480A9FED44
:102FA0000B0A296001F0B0FF0020E0E76408002070
:102FB000000000001C06002014020020CDCCCC3EF6
:102FC0009A99993E0000C84200007A4400808443E8
:102FD00010B59FED030A034801F08EFE002010BDDE
:102FE00000000000200B002070B505462DED048B7D
:102FF000F0EE408AF0EE619AB0EE608AB0EE410ADF
:1030000002F028F83E4890ED000A3E48B8EEC00AAB
:1030100070EE688A90ED000AB8EEC00A30EE488A79
:1030200028EEA80A08EE080A10EE100AFDF705FBC4
:1030300041EC100B02F04CF951EC100BFDF710FBBA
:1030400009EE100A18EE900A2F49884251DA18EE5C
:10305000100A88424DDAF5EEC08AF1EE10FA02DD70
:10306000B0EE680A01E0B1EE680A10EE100A4FF007
:10307000824188420DDCB5EEC08AF1EE10FA02DD25
:10308000B0EE480A01E0B1EE480A10EE100A88429C
:1030900033DDF5EEC09AF1EE10FA01DCF1EE699A3B
:1030A0001A4CB0EE490A2046C4ED0A9A01F008F81D
:1030B0001749012D02D0022D0FD01AE094ED090A14
:1030C00060EE680A20EE480A80EE891AC0EE090A0E
:1030D00081ED001AC1ED010A0BE094ED090A60EEE2
:1030E000280A20EE480A80EE891AC0EE090AC1ECCF
:1030F000020A0020BDEC048B70BD0120FAE700003D
:1031000044000020480000200080BB44B410002090
:103110006C06002070B50E489FED0C0A41F2883114
:10312000054601F0F3FD0B4C40F6AC50B4F95213D8
:10313000C14209DA28469FED080A01F0DDFD0020B2
:10314000C4F89C03012070BD002070BD00803BC509
:10315000AC0B0020640800200000000070B513488C
:103160009FED110A41F288312DED028B054601F0E9
:10317000CDFD0F4CB4F95213B1F57A6F11DD28462D
:103180009FED0C8AB0EE480AFDF79CFC0020C4F8C5
:103190009C03C4F8380384EDF28A0120BDEC028B55
:1031A00070BD0020FAE7000000803B45AC0B00201A
:1031B000640800200000000030B59FED2C0A90F854
:1031C0008420C1884AB3B0F90820DFED290A002A1B
:1031D0009FED281AB0F8862040F6C214F3EE031AC9
:1031E00041F6FF731FDB9142A1EB020205D242F2CE
:1031F000E0451544A5420AD81A4400EE102AB8EE5C
:10320000C00A80EE202A62EE010A80EEA10AB5EE25
:10321000C00AF1EE10FA1EDC23E0A0F886100121AE
:1032200080F8841030BD91421ED95B1A03F2E1454B
:103230001544A5420AD81A4400EE102AB8EEC00A76
:1032400080EE202A62EE010A80EEA10AB5EEC00AE5
:10325000F1EE10FA05D2D0ED200A30EE800A80EDB2
:10326000200AA0F8861030BD8A1AE5E700000000A9
:1032700000F8FF450000B44310B5FEEE002A2DED26
:10328000068B9FEDAB8AB0EE482AF0EE481ADFEDD0
:10329000A99AB0EE691A9FEDA8AAB2EE080AA7484B
:1032A000F0EE4A0A00F090FEA448FEEE002AB0EECE
:1032B000482AF0EE481AB0EE691AF0EE4A0AB2EE69
:1032C000080A383000F080FE9C48FEEE002AB0EE7E
:1032D000482AF0EE481AB0EE691AF0EE4A0AB2EE49
:1032E000080A703000F070FE9448FEEE002AB0EE3E
:1032F000482AF0EE481AB0EE691AF7EE000AB2EE6C
:10330000080AA83000F060FE8C48FEEE002AB0EEFD
:10331000482AF0EE481AB0EE691AF7EE000AB2EE4B
:10332000080AE03000F050FEF7EE002AB0EE482A1E
:10333000F0EE481AB0EE691AF7EE000AB2EE080A8B
:103340007F4800F041FEF7EE002A9FED7E9AB0EE36
:10335000492A9FED7D8AF0EE481ADFED7C8A784895
:10336000F0EE4A0AB0EE681AB2EE080A383000F001
:103370002BFE7348F7EE002AB0EE492AF0EE491A08
:10338000B0EE691AF7EE000AB2EE080A703000F0EB
:103390001BFE9FED6F9AB0EE482AF0EE481AF0EE51
:1033A000492AB7EE001AF0EE680ADFED6A9A64481F
:1033B000B0EE690AA83000F007FE6148F0EE492A35
:1033C000B0EE482AF0EE481AB7EE001AF0EE680A9E
:1033D000B0EE690AE03000F0F7FDF0EE492AB0EEF9
:1033E000482AF0EE481AB7EE001AF0EE680AB0EE7E
:1033F000690A594800F0E8FD5748F0EE492AB0EE56
:10340000482AF0EE481AB7EE001AF0EE680AB0EE5D
:10341000690A383000F0D8FD4F48F0EE492AB0EE86
:10342000482AF0EE481AB7EE001AF0EE680AB0EE3D
:10343000690A703000F0C8FD4748F0EE492AB0EE46
:10344000482AF0EE481AB7EE001AF0EE680AB0EE1D
:10345000690AA83000F0B8FD3F48F0EE492AB0EE06
:10346000482AF0EE481AB7EE001AF0EE680AB0EEFD
:10347000690AE03000F0A8FDF0EE492AB0EE482AD3
:10348000F0EE481AB7EE001AF0EE680AB0EE690ADC
:10349000324800F099FD324801219FED320A017156
:1034A00080F8901080F81C1180F8A81180F8341270
:1034B00080F8C01280F84C1380F8D8130021016006
:1034C000C0F88C10C0F81811C0F8A411C0F8301260
:1034D000C0F8BC12C0F84813C0F8D41380ED070A36
:1034E00080ED2A0A80ED4D0A80ED700A80ED930A86
:1034F000DFED1D0A80EDB60AC0EDD90A80EDFC0AA9
:103500009FED1A0ADFED1A0A80ED060A80ED290AFE
:1035100080ED4C0A80ED6F0A80ED920A80EDB50ACD
:10352000C0EDD80A80EDFB0ABDEC068B10BD000093
:1035300000409C46CDCCCC3DCDCCCC3EC40C002034
:10354000DC0D00200000804600C0DA4500000000CD
:10355000CDCC4C3D0000C842F40E00200C100020E1
:103560006408002000803B450000FA44000020C3AE
:1035700000007AC4124810B510490160032141606F
:1035800000214FF400228160C0E903124FF4401281
:1035900042610176012242768176C17601774177D8
:1035A000FDF73DFE08B1FDF7A8FBFDF72BFABDE8DE
:1035B000104002210248FDF7C3BB00000064004038
:1035C00034030020104810B50E490160032141600A
:1035D00000214FF400228160C0E903124FF4401231
:1035E00042610176012242768176C1760177417788
:1035F000FDF715FE002803D0BDE81040FDF77DBBA8
:1036000010BD0000006800405C03002010B5194A9E
:103610000021194803F0BEFC184C164A00216060D6
:103620002432174803F0B6FC124AA0604832002149
:10363000144803F0AFFC0F4AE0606C3200211248DE
:1036400003F0A8FC0B4A2061903200210F4803F0E0
:10365000A1FC084A6061B43200210D4803F09AFCD5
:10366000044AA061D83200210A4803F093FCE061CB
:1036700010BD0000F08D0008A143000800000020EC
:10368000AD6E000879410008F509000819640008CA
:1036900041680008C14300082DE9F04786B01421B5
:1036A0006846FCF737FE4F480024016841F00401EA
:1036B0000160016801F004010591016841F02001F9
:1036C0000160016801F020010591016841F080016D
:1036D0000160016801F080010591016841F010016D
:1036E0000160016801F010010591016841F00201DB
:1036F0000160016801F002010591016841F00101DA
:103700000160016801F001010591016841F00801C3
:1037100001600068DFF8D08000F008004FF4006519
:103720000590002229464046FEF70FF9DFF8BC90CD
:103730002E01002231464846FEF707F9DFF8B0A017
:10374000002208215046FEF700F9802000904FF437
:103750008810CDE90104274F69463846FDF7F8FF88
:103760004FF4605000904FF44410CDE901046946D5
:103770003846FDF7EDFF4FF42070CDE900046946AF
:1037800040460294FDF7E4FF00950125CDE9015480
:10379000694640460394FDF7DBFF0096CDE90154EE
:1037A000694648460394FDF7D3FF08200090CDE911
:1037B0000154694650460394FDF7CAFF00220221D6
:1037C0001720FEF76FF91720FEF75EF9002205219A
:1037D0002820FEF767F92820FEF756F906B0BDE865
:1037E000F087000030380240001002400000024024
:1037F000000402400014024010B588B01C21684645
:10380000FCF788FD15481449002401605321C0E9E4
:10381000011444F61F61C0E903148461FEF772FCD1
:1038200008B1FDF76AFA0D48FEF7D1FE08B1FDF7C1
:1038300064FA602000903220CDE90104002269463C
:1038400006480494FEF75DFE08B1FDF756FA0348FA
:10385000FEF71EFE08B010BD001C0040CC03002087
:1038600010B588B01C216846FCF754FD1548144972
:10387000002401605321C0E9011444F61F61C0E92E
:1038800003148461FEF73EFC08B1FDF736FA0D48DB
:10389000FEF79DFE08B1FDF730FA6020009032205F
:1038A000CDE901040022694606480494FEF729FE8A
:1038B00008B1FDF722FA0348FEF7EAFD08B010BD93
:1038C000002000401404002010B586B000241748E2
:1038D000009401940294039404944FF08041059461
:1038E00001605321C0E9011442F21071C0E90314D0
:1038F00080218161FEF706FC08B1FDF7FEF94FF467
:103900008050009069460948FEF7A0FC08B1FDF719
:10391000F4F9049404A905480594FEF7ABFB0028CC
:1039200001D0FDF7EAF906B010BD000084030020C5
:103930000C4810B50A4901604FF4E13141600021A3
:1039400081600C22C160C0E904128161C161FFF78E
:1039500033F8002803D0BDE81040FDF7CEB910BD04
:10396000004C00405C0400200C4810B50A4901607E
:103970004FF4E1314160002181600C22C160C0E957
:1039800004128161C161FFF717F8002803D0BDE878
:103990001040FDF7B2B910BD00500040A004002057
:1039A0000C4810B50A4901604FF4E1314160002133
:1039B00081600C22C160C0E904128161C161FEF71F
:1039C000FBFF002803D0BDE81040FDF796B910BDFD
:1039D00000100140E40400200C4810B50A490160C1
:1039E0004FF4E1314160002181600C22C160C0E9E7
:1039F00004128161C161FEF7DFFF002803D0BDE83A
:103A00001040FDF77AB910BD0044004028050020A1
:103A10000C4810B50A4901604FF4E13141600021C2
:103A200081600C22C160C0E904128161C161FDF7AF
:103A300097FF002803D0BDE81040FDF75EB910BD28
:103A4000004800406C0500200C4810B50A49016090
:103A50004FF4E1314160002181600C22C160C0E976
:103A600004128161C161FDF77BFF002803D0BDE82E
:103A70001040FDF742B910BD00140140B005002010
:103A8000B4EEE00AF1EE10FA01DDB0EE600AF1EEFC
:103A9000600AB4EEE00AF1EE10FA01D2B0EE600A6C
:103AA0007047FEE72DE9FC5FDFF858920026DFF84B
:103AB00058A2A9F5E0774FF0010BB046A7F58C6549
:103AC000C6EBC60000EB800005EB800421790329DA
:103AD0007DD055F820000A2822D2DFE800F0C6C8C1
:103AE000224EC8059252C831C6EBC60109EBC1008F
:103AF0000090D0ED090AB4F9080000EE100A07EBB7
:103B0000C100B8EEC00A00F003FAB4F90E0000EEEE
:103B1000100A0098F8EEC00A94ED200A00F072FA3C
:103B2000A5E0B4F90800D4ED040A00EE100AC6EBD3
:103B3000C60007EBC000B8EEC00A00F0E9F996E055
:103B40002046FFF7F9F8B4F90800D4ED040A00EEB6
:103B5000100AC6EBC60007EBC000B8EEC00A009022
:103B600000F0D6F90098D4ED070A90ED090AFFF7A6
:103B700087FF009880ED090A79E0204601F0CEF831
:103B8000CFE7C6EBC60009EBC0010191D1ED090AF0
:103B9000B4F9081007EBC00000EE101A0090B8EE60
:103BA000C00A00F0B5F9D4ED0C0A94ED200A019892
:103BB00000F028FAB4F9380000EE100A0098F8EE88
:103BC000C00A90ED090AFFF75BFF009800E052E0A1
:103BD00080ED090AB4F9080000EE100AB8EEC00A38
:103BE000B0EEC00A10EE100A504507DC206C401CF5
:103BF000206464283BDBC4E90FB838E0C4F8408097
:103C000035E0B4F90800D4ED120A00EE100AC6EB54
:103C1000C60007EBC000B8EEC00A009000F078F9CB
:103C2000B4F9500000EE100A0098F8EEC00A90EDCA
:103C3000090AFFF725FF009880ED090AB4F908008A
:103C400000EE100AB8EEC00AB0EEC00A10EE100A7C
:103C5000504507DCA06D401CA065322807DBC4E995
:103C600015B804E0C4F8588001E0A4F80C80761C74
:103C7000082EFFF625AF0020C0EBC00101EB81014B
:103C800005EB81010979032902D0401C0828F3DBE8
:103C90005FF00000C0EBC00101EB810155F821206D
:103CA000042A08D005EB81010A79012A0AD0022AE8
:103CB00015D0A1F80C80401C0828EBDBBDE8FC5FA8
:103CC00002F018BBC0EBC00207EBC202DFED0F0A27
:103CD00092ED090A20EE200ADFED0D0A09E0C0EBA3
:103CE000C00207EBC202DFED0B0A92ED090A20EEDB
:103CF000200A80EE201ABDEEC10A10EE102A8A8139
:103D0000D9E70000840E002000002041000080461A
:103D100000409C4600401C4610B5F7EE002A2DEDF1
:103D2000048BDFED638AB0EE682A9FED629AF0EEB5
:103D3000491A9FED618AB6EE000A6048B0EE481A53
:103D4000F0EE480A00F040F95C48F7EE002AB0EEC9
:103D5000682AF0EE491AB0EE481AF0EE480AB6EEBC
:103D6000000A383000F030F9FFEE002AB0EE682A81
:103D7000DFED531A5148B0EE481AF0EE680AB3EE80
:103D80000E0A703000F020F9F2EE042AB0EE682A34
:103D9000DFED4C9A4948B6EE001AF0EE691AF0EEE3
:103DA000680AB0EE080AA83800F00EF94348F2EEAF
:103DB000042AB0EE682AF0EE691AB6EE001AF0EEA8
:103DC000680AB0EE080A703800F0FEF83B48F7EEDB
:103DD000002AB0EE682ADFED3C1AB0EE481AF0EE89
:103DE000680AB3EE0E0A383800F0EEF8F2EE042A54
:103DF000B0EE682AF0EE491AB6EE001AF0EE680A44
:103E0000B7EE000A314800F0DFF8F2EE042AB0EE17
:103E1000682ADFED2F1AB6EE001AF0EE680AB7EE48
:103E2000000A2C4800F0D0F8DFED2B9AF1EE042ABE
:103E3000B0EE682AF0EE691A9FED281AF0EE680AD3
:103E4000B0EE080A264800F0BFF8F1EE042AB0EE02
:103E5000682AF0EE691AB6EE001AF0EE680AB0EEC3
:103E6000000A204800F0B0F81448F1EE042AB0EE41
:103E7000682AF0EE491AB6EE001AF0EE680A9FEDD5
:103E80001A0AC03000F0A0F8F0EE482AB0EE682A16
:103E9000F0EE491AF0EE680ABDEC048BB7EE001A9A
:103EA000B3EE0E0A0548BDE81040F83000F08CB8BB
:103EB000000000000000FA43CDCCCC3D34070020C8
:103EC000000048440000FA4400007A4444100020F6
:103ED0000000C8427C100020000096439A99993E49
:103EE000B4100020EC1000209A99993FFEE7B4EE40
:103EF000E00AF1EE10FA01DDB0EE600AF1EE600AC0
:103F0000B4EEE00AF1EE10FA01D2B0EE600A7047AA
:103F100030EEC00A00B580ED050AD0ED040A70EE5F
:103F2000600AC0ED060AD0ED010A20EE800AD0ED4D
:103F3000080AFFF7DCFFD0ED000A90ED061AB0EE9C
:103F4000002A00EE810AD0ED050A90ED031A70EE0A
:103F5000811A90ED041A41EE421A90ED022A02EE07
:103F6000210AD0ED091A70EE211AC0ED091A90ED60
:103F70000A0AF4EEC01AF1EE10FA01DD80ED090A2A
:103F8000D0ED091AB1EE400AF4EEC01AF1EE10FAC3
:103F900001D280ED090AF5EEC00A80ED031AF1EEB8
:103FA00010FAC0ED040A01DCF1EE600A90ED0D0A92
:103FB000F4EEC00AF1EE10FA03D29FED020A80ED92
:103FC000090A00BD0000000080ED082AC0ED0A1AB1
:103FD000012180EC030A9FED0A0A80ED0B0A80EDB7
:103FE000030A80ED040A80ED090A80ED070A80EDDE
:103FF000050A80ED060A80F83010C0ED0D2A7047E2
:104000000000000000B590F8301030EEC00A012921
:1040100006D180ED040A80ED030A002180F83010FB
:1040200080ED050AD0ED070A70EE800AC0ED070AA0
:1040300090ED041A30EE410A80ED060A90ED010A77
:1040400020EE200AD0ED080AFFF751FF90ED001A8C
:10405000D0ED050AD0ED061A01EE200A90ED021A05
:1040600001EE210A80ED090A90ED0A1AB4EEC10AA8
:10407000F1EE10FA01DD80ED091AD0ED091AB1EE6A
:10408000410AF4EEC01AF1EE10FA01D280ED090AED
:10409000F5EEC00AC0ED040AF1EE10FA01DCF1EE13
:1040A000600A90ED0D0AF4EEC00AF1EE10FA03D2A8
:1040B0009FED020A80ED090A00BD0000000000002B
:1040C00000B590F83010012906D180ED040A80ED8A
:1040D000030A002180F8301080ED050AD0ED070AB0
:1040E00070EE800AC0ED070A90ED041A30EE410A26
:1040F00080ED060A90ED010A20EE200AD0ED080AB4
:10410000FFF7F5FE90ED001AD0ED050AD0ED061A86
:1041100001EE200A90ED021A01EE210A80ED090A53
:1041200090ED0A1AB4EEC10AF1EE10FA01DD80ED4D
:10413000091AD0ED091AB1EE410AF4EEC01AF1EEF7
:1041400010FA01D280ED090AF5EEC00AC0ED040AAA
:10415000F1EE10FA01DCF1EE600A90ED0D0AF4EEDA
:10416000C00AF1EE10FA03D29FED020A80ED090AAF
:1041700000BD00000000000002F010FE03F04CFD46
:1041800003F0B2FB052002F0C9FEF5E72DE9FF5F61
:1041900001227F497F48FEF753FD7D4D7E4C6878B4
:1041A00030B1012823D002282CD0032848D13DE08B
:1041B00077497A4B891C0022487808702878487023
:1041C00010460E5C1F5CBE4201D1521CD2B2401C94
:1041D0000228F6DB022A04D032E00A5C2254401C9A
:1041E000A880B5F904000228F7DB01201CE0B5F92E
:1041F000040029782154401C00B2A8802B281FD12C
:10420000022011E02879401EC1B2634803F054FB3C
:104210002978884206D1B5F904002154401CA880B1
:10422000032001E00020A880687009E0B5F90410BF
:104230002A78AE466254491C09B2A9802E2903D0BF
:10424000002004B0BDE8F09F514900203031221811
:10425000D2780A54401C0428F9DB4D4A002034323D
:104260002318DB791354401C0428F9DBDFF820B154
:1042700000200BF1380B2318DD7A0BF80050401C9E
:104280000428F8DBDFF80891002009F13C09231825
:10429000DD7B09F80050401C0428F8DBDFF8F0A0B3
:1042A00000200AF1400A2318DD7C0AF80050401C67
:1042B0000428F8DB364B002044332518ED7D1D54CF
:1042C000401C0428F9DB324D002048352618F67EC4
:1042D0002E54401C0428F9DB2D4E00204C362718A4
:1042E000FF7F3754401C0428F9DB294F002050374A
:1042F00004EB000C9CF823C007F800C0401C042805
:10430000F6DBDFF88CC000200CF1540C04EB000845
:1043100098F827800CF80080401C0428F6DB0098F1
:1043200091ED000A80ED000A019892ED000A80EDFF
:10433000000A02989BED000A80ED000A039899EDAF
:10434000000A80ED000A0E989AED000A80ED000A3E
:104350000F9893ED000A80ED000A109895ED000A81
:1043600080ED000A119896ED000A80ED000A12987F
:1043700097ED000A80ED000A13989CED000A80ED8D
:10438000000A0020AEF804008EF80100012058E772
:10439000BC0100202805002054120020EC8E0008EB
:1043A00004F07EFB0549086003F046FC02F04EFA7B
:1043B0000A21024803F01AFFF6E70000000000207F
:1043C0000A2002F0ABFDFBE710B5FDF7FFFA04F0A1
:1043D00059FB012803D0BDE8104004F087B810BD98
:1043E00030B593B030216846FBF794FF14210CA838
:1043F000FBF790FF1E480025016841F080510160E5
:10440000006800F0805011901A48016841F4804122
:1044100001600068022400F48040119001200090A7
:10442000000401908001CDE90640082008904FF477
:10443000A870CDE9090404200B906846FDF74EFCF6
:1044400008B172B6FEE70CA90F2081E831004FF4E5
:10445000A0500F904FF48050109005210CA8FDF74C
:1044600053FB002801D072B6FEE713B030BD000048
:1044700040380240007000400248016841F4700179
:104480000160704788ED00E00148FDF74EBF000075
:1044900084030020F0B50268254C264D264E274F98
:1044A000274B4FF0804CA04209D0604507D0A8426E
:1044B00005D0B04203D0B84201D0984204D122F0D6
:1044C000700E4A6842EA0E02A0421BD0604519D025
:1044D000A84217D0B04215D0B84213D0984211D09C
:1044E000184DA8420ED0184DA8420BD0174DA84227
:1044F00008D0174DA84205D0164DA84202D0164D3F
:10450000A84203D122F44075CA682A434D6922F0BB
:1045100080022A4302608A68C2620A688262A042FC
:1045200001D0984201D10969016301214161F0BDC7
:10453000000001400004004000080040000C004062
:104540000004014000400140004401400048014097
:1045500000180040001C00400020004010B501F091
:104560001F030121046A99408C430462016A9A4046
:104570001143016210BD10B5846842EA032224F49D
:104580007F440A432243826010BD826822F0700299
:104590000A4342F00701816070470000F0B5026AEB
:1045A00022F001020262036A42688469124E24F01A
:1045B00073050C682C4323F002058B682B430D4DCB
:1045C000A84201D0B04205D123F00807CB683B4395
:1045D00023F00403A84201D0B04205D14D6922F472
:1045E000407215438A692A43426084614968416385
:1045F0000362F0BD0000014000040140F0B5026A12
:1046000022F010020262026A436884690D6824F491
:10461000E64444EA05248D6822F0200242EA0512AD
:104620000F4D104EA84201D0B04206D1CF6822F003
:10463000800242EA071222F04002A84201D0B042B2
:1046400007D14D6923F4406343EA85038D6943EA4A
:10465000850343608461496881630262F0BD0000A4
:104660000000014000040140F0B5026A22F48072AB
:104670000262026A4368C46922F4007224F073057E
:104680000C68124E2C438D6842EA05220E4DA8425A
:1046900001D0B04206D1CF6822F4006242EA07227C
:1046A00022F48062A84201D0B04207D14D6923F4C0
:1046B000405343EA05138D6943EA05134360C4611F
:1046C0004968C1630262F0BD00000140000401407E
:1046D00030B5026A22F480520262046A4268C369F9
:1046E0000D6823F4E64343EA05238D6824F400545F
:1046F00044EA0534084DA84202D0084DA84204D12E
:104700004D6922F4804242EA85124260C3614968E1
:104710000164046230BD000000000140000401405B
:1047200010B5036A046A24F001040462846924F069
:10473000F00444EA021423F00A020A43846102628C
:1047400010BD10B5036A23F0100303628369046A85
:1047500023F4704343EA023224F0A00343EA011138
:104760008261016210BD000010B508785D4A9FEDBE
:104770005E2ADFED5E2A012830D0022859D00328B6
:104780007ED0042829D1CB78B1F801000C791B0127
:1047900043EA1413497904F00F0441EA042440BAAF
:1047A0001021F2EE090ABAEE090A03F0B1FB82ED1C
:1047B000150A0C21F0EE420AB0EE620A184603F028
:1047C000A7FB82ED160A0C21F3EE020ABBEE020AE9
:1047D000204603F09DFB82ED170A10BDCB78B1F89F
:1047E00001000C791B0143EA1413497904F00F040A
:1047F00041EA042440BA1021F2EE090ABAEE090A8D
:1048000003F086FB82ED000A0C21F0EE420AB0EEC6
:10481000620A184603F07CFB82ED010A0C21F3EEDC
:10482000020ABBEE020A204603F072FB82ED020A86
:1048300010BDCB78B1F801000C791B0143EA1413C9
:10484000497904F00F0441EA042440BA1021F2EE41
:10485000090ABAEE090A03F05BFB82ED070A0C2194
:10486000F0EE420AB0EE620A184603F051FB82ED08
:10487000080A0C21F3EE020ABBEE020A204600E011
:1048800004E003F045FB82ED090A10BDCB78B1F8D6
:1048900001000C791B0143EA1413497904F00F0459
:1048A00041EA042440BA1021F2EE090ABAEE090ADC
:1048B00003F02EFB82ED0E0A0C21F0EE420AB0EE60
:1048C000620A184603F024FB82ED0F0A0C21F3EE76
:1048D000020ABBEE020A204603F01AFB82ED100A20
:1048E00010BD0000AC0200200000FA430000FAC333
:1048F00010B5012204490548FEF7A2F9BDE81040B1
:104900000248FDF725BF0000050100205C040020DF
:1049100070B5084B084C251D1A6D06E02668360652
:10492000FCD510F8016B2E60521C8A42F6DB002089
:10493000186570BD04010020004C004010B5806B6C
:104940000021C185C184FDF701FF10BD01680C3154
:1049500051E8002F22F4907241E80023002BF5D19A
:104960000168143151E8002F22F0010241E80023D0
:10497000002BF5D1016B012909D101680C3151E8F7
:10498000002F22F0100241E80023002BF5D1202156
:1049900080F83E1000210163704708B590F83E1082
:1049A000222901D0022008BD82684FF480539A4228
:1049B00001D1016921B1816A9A421BD04AB10AE052
:1049C0000268816A5268C2F308020A80816A891CFF
:1049D00008E0026972B10268526802F07F020A7050
:1049E000816A491C8162C18D491E0904090CC18577
:1049F00003D019E002685268F1E70168CA6822F042
:104A00002002CA600168CA6822F48072CA60016824
:104A10004A6922F001024A61202180F83E10016BB0
:104A2000012903D0FEF722F9002008BD002101630F
:104A300001680C3151E8002F22F0100241E80023F8
:104A4000002BF5D101680A68D20602D50A684968C8
:104A50000091818DFDF779FEE6E7000070B5044610
:104A600000680169E26821F4405111430161216944
:104A7000A068E26908436169114308432168CA6874
:104A800049F20C639A430243CA6020684169A269F3
:104A900021F440711143416131492068884202D0BC
:104AA0003049884202D1FDF7D9F801E0FDF7C6F898
:104AB000E2690023192164253226B2F5004F6268AD
:104AC00028D0A0FB0101930F9200FBF7D9FB014610
:104AD000B0FBF5F06FF01802504301EB800006EBDD
:104AE0000010B0FBF5F000F0F002B1FBF5F002EBC6
:104AF0000012B1FBF5F06FF01803584301EB800092
:104B000006EB0010B0FBF5F000F00F002168104438
:104B1000886070BDA0FB010192185B41FBF7B0FB00
:104B20000146B0FBF5F00201B1FBF5F06FF01803A0
:104B3000584301EB800006EBC000B0FBF5F000F03D
:104B4000F80002EB4002B1FBF5F0584301EB8000A6
:104B500006EBC000B0FBF5F000F00700D6E7000060
:104B6000001001400014014081628285C28500214D
:104B70000164222280F83E2080F83C100168CA6857
:104B800042F48072CA6001684A6942F001024A61D7
:104B90000068C16841F02001C1600020704700003A
:104BA00010B5012204490548FEF74AF8BDE8104057
:104BB0000248FDF7CDBD000004010020E404002000
:104BC00010B5012204490548FEF73AF8BDE8104047
:104BD0000248FDF7BDBD0000BC01002028050020F3
:104BE00010B5194C194B04F1100194ED030A184A41
:104BF00084ED060A94ED040A081F84ED070A03F009
:104C0000E1F894ED030AD4ED060A114870EE600A4B
:104C10000838C4ED080A94ED040A94ED071A30EE42
:104C2000410A84ED090A94ED0A1A71EE200AC4EDD6
:104C30000A0A94ED0B1A31EE000A84ED0B0AC0ED5E
:104C4000000A80ED010A10BD380600203C12002049
:104C500030060020FEE70000F0B504462DED048B81
:104C600087B0B0EE418AF0EE608AB0EE409A18212B
:104C70006846FBF74FFB1F4A131D1E1D82ED009A6D
:104C8000C3ED008A371D86ED008A3C600020A2F14A
:104C900069016C460D5C2554401C0228FADB112585
:104CA0008DF802505FF00000211812F800C081F862
:104CB00003C013F800C081F807C016F800C081F8DF
:104CC0000BC017F800C0401C81F80FC00428EBDBB4
:104CD000E91C204601F0C0FB611988700D20C870E6
:104CE0000A20087116216846FFF712FE07B0BDECD6
:104CF000048BF0BD7C0100200221016080ED040ADC
:104D00009FED010A704700000000000006220260CB
:104D100080ED120AA0F850107047000010B5D0EDD9
:104D20001D2A044612EE900A4FF07E51884218DC8C
:104D3000F5EEC02AF1EE10FA13D394ED1E3A13EEFD
:104D4000100A88420DDCB5EEC03AF1EE10FA08D335
:104D500094ED1B2AD4ED1A1AB4EEE12AF1EE10FA02
:104D600002D29FED670A0AE094ED180A94ED191A31
:104D7000B4EE410AF1EE10FA04D121EE820A84ED7C
:104D8000040A10BD71EE400AF5EEC00AF1EE10FA09
:104D900001DC70EE410AF0EE003AB4EEC01A62EEA9
:104DA000A02A23EE204A30EEE23A22EEA35A64EE25
:104DB000236A73EE444A22EE023A01EEE13AC3EE70
:104DC000055A94ED1C5A25EE053AB0EE436A02EE00
:104DD000426A86EE264AF1EE10FA06DD94ED206A6C
:104DE000B4EEC06AF1EE10FA0BD3B4EEC01AF1EED5
:104DF00010FA09D294ED206AB4EEC06AF1EE10FA0E
:104E000002DDC4ED041A57E0B4EEC01AF1EE10FA58
:104E100006DD94ED206AB4EEC16AF1EE10FA0BDC07
:104E2000B4EEC01AF1EE10FA09D294ED206AB4EE95
:104E3000C16AF1EE10FA02D284ED045A3CE094ED1E
:104E4000205A35EE401AB5EEC01AF1EE10FA01DC28
:104E500030EE451AB4EEE21AF1EE10FA08D221EE65
:104E6000A10A65EEA30A00EE810A10EE100A18E00E
:104E700032EEA40AB4EEC10AF1EE10FA02DD84EDBE
:104E8000042A19E030EEC10A64EE231AB5EEC00A16
:104E9000F1EE10FA01DC31EE600A01EEC03A13EED9
:104EA000100AFBF7CAFB41EC100B00F011FA51ECB1
:104EB000100BFBF7D5FB206194ED190AD4ED180A0D
:104EC000B4EEE00AF1EE10FA05D2D4ED040AF1EEE8
:104ED000600AC4ED040AD4ED200A0A4830EEC00A84
:104EE000B0EEC00A10EE101A814201DA0121E1672A
:104EF00010EE101A81427FF744AF0020E06710BD2A
:104F00000000000000004040032140F8601B80ECDE
:104F1000070A70472DE9FF5F91468B4682460122C2
:104F200049494A48FDF78CFE474CDFF824814FF091
:104F3000000CA079112809D021790120E9B10129BB
:104F400020D0022930D0032979D13DE02078AA2849
:104F500001D0607173E06079552870D13A4884F8C7
:104F600006C00F30017888F80010407888F80100FA
:104F700084F804C084F803C061E0217888F8021046
:104F8000E1821FE0B4F91200217808EB0002401C16
:104F9000D17000B26082B4F91610491E88424EDB0F
:104FA000A4F812C002200DE0B4F91600217808EB35
:104FB0000002C01C917081B2254801F04DFAE070EA
:104FC0002079401C20713AE0B4F9141011B1012984
:104FD00002D034E0A08232E01B4AA4F814C0583258
:104FE000131D1D1D15F10406B4F9140008EB000192
:104FF000CF781754CF791F54CF7A2F54C97B3154AF
:10500000401C00B2A0820428EEDB1168CAF8001030
:105010001968CBF800102968C9F8001003983168A6
:10502000016084F804C084F805C01120A07184F8E0
:1050300003C0A4F816C0A4F812C0A4F814C004B0A9
:105040000020BDE8F09F000004010020E4040020DF
:10505000EC110020234808B5D0ED020A60EE801A5A
:1050600030EE601AF5EEC01AF1EE10FA14DAF5EE31
:10507000C00AF1EE10FA01DCF1EE600AB5EEC00AEA
:10508000F1EE10FA01DCB1EE400A174930EE800A69
:1050900010EE100A884202DC8DED001A02E068462C
:1050A000FBF77CFC9DED000A1048FFF709F80F485C
:1050B00090ED090AA0F5E070B1EE400A80ED020A19
:1050C0009DED000AB5EEC00AF1EE10FA01DCB1EE7A
:1050D000400A10EE100AB0F17C5F01DA012008BD31
:1050E000002008BD28060020000034432C080020C2
:1050F00003B401984100009850EAC12018BF042071
:105100004A0D18BF40F0010040F2FF72B2EB515F50
:1051100008BF40F00200012808BF052002B0704718
:105120000907090E002804DB00F1E02080F80014D4
:10513000704700F00F0000F1E02080F8141D704768
:1051400010B52F499FED2C1B2DED020B84B0059857
:1051500020F000408842D8BF9DED040B2DDD294989
:10516000884209D1049840B94FF0010000F014FDC5
:1051700000F0E2FC06B010BD05DB9DED040B00F075
:10518000CFFC06B010BD68469DED040B00F0E0F8C2
:1051900010F0030004BF9DED021B9DED000B0CD031
:1051A00001280ED09DED021B9DED000B022817D0AB
:1051B000012000F01DFC06B010BD00F0E5FA06B0BD
:1051C00010BD9DED021B9DED000B012000F010FCB9
:1051D00051EC100B81F0004106B041EC100B10BDFA
:1051E00000F0D2FA51EC100B81F0004106B041EC16
:1051F000100B10BD000000000000000000000000C7
:10520000FB21E93F0000F07F10B52F499FED2C1BDB
:105210002DED020B84B0059820F000408842DCBFE1
:1052200000209DED040B32DD2849884209D1049805
:1052300040B94FF0010000F0AFFC00F07DFC06B07B
:1052400010BD05DB9DED040B00F06AFC06B010BD3F
:1052500068469DED040B00F07BF810F0030011D0C0
:10526000012818D09DED021B9DED000B02281AD0DD
:1052700000F08AFA51EC100B81F0004106B041ECCD
:10528000100B10BD9DED021B9DED000B012000F0E9
:10529000AFFB06B010BD9DED021B9DED000B00F0B5
:1052A00073FA06B010BD012000F0A2FB51EC100B08
:1052B00081F0004106B041EC100B10BD0000000071
:1052C0000000000000000000FB21E93F0000F07F2B
:1052D00000B52DED048BB0EE409AF0EE609A83B0ED
:1052E00051EC190BFBF79DFA41EC180B18EE100A64
:1052F00018EE901A8DED008B002818BF012008438E
:1053000020F00040C0F17F6000F1E040C00F14D0F9
:1053100019EE101A19EE900A8DED009B002918BFA6
:105320000121084320F00040C0F17F6000F1E0401F
:10533000C00F04BF012000F02FFCB0EE480A03B0FC
:10534000F0EE680ABDEC048B00BD00000000000018
:105350002DE9F14F04462DED020B2DED088B8AB09F
:105360009FEDE70B80ED020B139EE74826F000450A
:1053700085420ADC9DED120B002084ED000B0AB083
:10538000BDEC088B03B0BDE8F08FE0489FEDE0ABCB
:105390009FEDE1BBA84247DDE14F9FEDE39B9FED11
:1053A000E48B9DED120B53EC1A2B51EC100B002EDD
:1053B0001CDDFBF75BF841EC100BBD4208D053EC51
:1053C0001B2B51EC100BFBF751F8C4E900010BE06B
:1053D00053EC192B51EC100BFBF748F853EC182B3E
:1053E000FBF744F8C4E900010120C8E7FAF79DFF84
:1053F00041EC100BBD4208D053EC1B2B51EC100BB1
:10540000FAF793FFC4E900010BE053EC192B51ECC0
:10541000100BFAF78AFF53EC182BFAF786FFC4E952
:1054200000014FF0FF30AAE7C348A84279DB9DEDA9
:10543000120B51EC100B01F003F841EC180B9FED2F
:10544000C00B53EC102BFBF717F89FEDBF1B53EC71
:10545000112BFAF76AFFFBF765FA0746FBF744FAE8
:1054600041EC190B53EC1A2BFBF706F853EC182BF5
:10547000FAF7FFFF41EC180B53EC1B2B51EC190B07
:10548000FAF7FAFFDFF8C8A241EC100B4FEA155803
:105490000125FA4453EC102B51EC180BFAF7E6FFF8
:1054A000032DC4E900013DD0C1F30A5005EB4511BD
:1054B000A8EB00001139814234DA0AEB051BB0EE8B
:1054C00048AA9BED000BF0EE68AA53EC102B51ECB0
:1054D000190BFAF7D1FF41EC1B0B51EC1A0B53ECF3
:1054E0001B2BFAF7C3FF41EC180B51EC1A0B53ECD2
:1054F000182BFAF7BBFF53EC1B2BFAF7B7FF9BED0A
:10550000020B41EC1A0B53EC102B51EC190BFAF770
:10551000B3FF53EC1A2BFAF7A9FF41EC100B6D1CEB
:10552000B8E70EE0002EA8BF3846BFF628AF94EDCE
:10553000000B51EC100B81F00041C4E900017842EE
:105540001DE7C6F3130040F4801EC6F30A50A0F214
:10555000F530471100F01F05C5F12000DDF848B017
:1055600008900020069007900520EC467949002D10
:1055700007EB0002794408BF51F8221009D051F816
:10558000223001EB8201AB404A68089922FA01F10E
:105590001943A1FB0E26A1FB0B131A449A4234BFF8
:1055A0000123002303EB06080CEB8003D3E901A6DB
:1055B0000E448E4234BF0121002192448A4411B12D
:1055C000924502D903E0924501D2012100E0002179
:1055D000C3E901A641444CF82010011EA0F10100CE
:1055E000C4DC029800F10050850F0298DDE90367E2
:1055F0008000DDF81480FBF777F941EC1A0B304698
:10560000FBF783F99FED541B53EC112BFAF734FF92
:1056100041EC1B0B3846FBF778F99FED511B53EC1F
:10562000112BFAF729FF41EC180B4046FBF76DF9F7
:105630009FED4D1B53EC112BFAF71EFF41EC190B9C
:1056400051EC180B53EC192BFAF76FFE53EC1B2B94
:10565000FAF76BFE53EC1A2BFAF767FECDE9080157
:10566000002008909DED080B53EC1A2B51EC100B09
:10567000FAF7FCFE53EC1B2BFAF7F8FE53EC182B51
:10568000FAF7F4FE53EC192BFAF7F3FE9FED381BF3
:1056900053EC112BFAF7F0FE9FED370B41EC180B92
:1056A00053EC102B9DED080B51EC100BFAF7E4FEB8
:1056B00053EC182BFAF739FE9FED310B41EC180B28
:1056C00053EC102B9DED080B51EC100BFAF7D4FEA8
:1056D00053EC182BFAF729FE41EC100B139810F03D
:1056E000004F06D06D4251EC100B81F0004141ECAF
:1056F000100B284684ED000B41E60000000000007E
:105700000000000000000000FB21E93F7CD90240BE
:1057100000004054FB21F93F3163621A61B4D03D6F
:10572000FB21F93F000000000000601A61B4D03D89
:105730007370032E8A19A33BFB213941000000003E
:1057400083C8C96D305FE43F000000000000E03F07
:10575000A23A0000F0390000000000000000103EF6
:10576000000000000000103C000000000000103AA3
:10577000182D4454FB21F93D3326A611460B113C4C
:1057800000000054FB21F93D10B52DED040B2DED6B
:10579000088B82B0B0EE419AF0EE619A0B9820F03F
:1057A00000449FED4BABB4F1795F11DA9DED0A0B2C
:1057B00051EC100BFBF7B6F8002801BFB0EE4A0A17
:1057C000F0EE6A0A02B0BDEC088B04BF04B010BD55
:1057D0009DED0A0B53EC102B51EC100BFAF74CFE1D
:1057E00041EC180B3C480621B0EE480AF0EE680A7E
:1057F000784400F081F853EC182B51EC100BFAF7B9
:105800003BFE9DED0A0B41EC1B0B53EC192B51ECAD
:10581000100BFAF731FE41EC190B53EC1B2B51EC3A
:10582000180BFAF729FE53EC192BFAF71FFE9FED20
:105830002C0B41EC190B53EC102B51EC180BFAF715
:105840001BFE41EC100B2848844210DA53EC192B54
:1058500051EC100BFAF70AFE53EC1A2BFAF709FE7B
:1058600041EC100B02B0BDEC088B04B010BD1F481A
:10587000A042BCBF9FED1E1B8DED001B06DBA4F5F7
:1058800000100190002000909DED001B51EC100BCA
:1058900053EC112BFAF7EAFD9DED000B41EC180BD0
:1058A00053EC102B51EC1A0BFAF7E0FD41EC1A0BFC
:1058B00053EC192B51EC180BFAF7D8FD53EC1A2BBB
:1058C000FAF7D7FD41EC100BCCE700000000000018
:1058D000000000000000F03F14370000000000004E
:1058E000000000000000E03F3333D33F0000E93FF9
:1058F000000000000000D23F70B504462DED028B81
:105900004D1E00EBC500B0EE408AF0EE608A90EDCF
:10591000000B35F0060017D053EC182B51EC100B90
:10592000FAF7AAFD41EC100B6D1E04EBC50090EDDB
:10593000001B51EC100B53EC112BFAF7F6FC41EC69
:10594000100B35F00600E7D1022D36D0042D1CD007
:10595000062D1CBFBDEC028B70BD53EC182B51EC17
:10596000100BFAF789FD94ED0A1B53EC112BFAF793
:10597000DCFC53EC182BFAF77FFD94ED081B53EC7D
:10598000112BFAF7D2FC41EC100B53EC182B51EC15
:10599000100BFAF771FD94ED061B53EC112BFAF77F
:1059A000C4FC53EC182BFAF767FD94ED040B53EC91
:1059B000102BFAF7BAFC41EC100B53EC182B51ECFE
:1059C000100BFAF759FD94ED021B53EC112BFAF76B
:1059D000ACFC53EC182BFAF74FFD94ED001B53EC85
:1059E000112BFAF7A2FCBDEC028B41EC100B70BD41
:1059F00031B504462DED040B2DED0A8BB0EE41BA06
:105A0000F0EE61BA0B989DED0A0B20F00040B0F16A
:105A1000795F0DDA51EC100BFFF76AFB042808BF21
:105A200000F09AF89DED0A0BBDEC0A8B05B030BD75
:105A300053EC102B51EC100BFAF71EFD41EC180B38
:105A40009DED0A0B53EC182B51EC100BFAF714FDDB
:105A500041EC190B2C48B0EE480AF0EE680A05211B
:105A60007844FFF749FF9FED2ACBB0EE40AAF0EE55
:105A700060AA9CB353EC1C2B51EC190BFAF7FCFCFD
:105A800041EC1C0B53EC1A2B51EC190BFAF7F4FCFC
:105A90009FED210B41EC190B53EC102B51EC1B0B20
:105AA000FAF7EAFC53EC192BFAF7E0FC53EC182B4D
:105AB000FAF7E2FC53EC1B2BFAF7D8FC53EC1C2B47
:105AC000FAF7D4FC9DED0A1B53EC112BFAF7D1FC2D
:105AD000BDEC0A8B05B041EC100B30BDFFE753EC79
